:100000000C9446000C9465000C9465000C946500FB
:100010000C9465000C9465000C9465000C946500CC
:100020000C9465000C9465000C9465000C946500BC
:100030000C9465000C94DB010C9465000C94650035
:100040000C9465000C9465000C9465000C9465009C
:100050000C9465000C9465000C9465000C9465008C
:100060000C9465000C9465000C9465000C9465007C
:100070000C9465000C9465000C9465000C9465006C
:100080000C9465000C9465000C94650011241FBE4F
:10009000CFEFD0E4DEBFCDBF11E0A0E0B1E0E8EAF1
:1000A000F7E000E00BBF02C007900D92AA31B10744
:1000B000D9F721E0AAE1B1E001C01D92A532B20753
:1000C000E1F70E9457030C94CB030C940000CF93EC
:1000D000DF93CDB7DEB781E00E948E000000DF9194
:1000E000CF910895CF93DF93CDB7DEB784E690E04C
:1000F0000E94330188E30E948E0086E00E948E00F9
:100100008FE00E948E0081E00E948E008AE090E0E5
:100110000E9433010000DF91CF910895CF93DF93C8
:100120000F92CDB7DEB789838BE290E0FC0120818E
:100130008BE290E02F7BFC01208388E290E0298114
:10014000FC0120838BE290E0FC0120818BE290E0B7
:100150002068FC01208300008BE290E0FC012081FC
:100160008BE290E02F77FC01208382E090E00E94F8
:10017000330100000F90DF91CF910895CF93DF936B
:100180000F92CDB7DEB789838BE290E0FC0120812E
:100190008BE290E02064FC01208388E290E02981DA
:1001A000FC0120838BE290E0FC0120818BE290E057
:1001B0002068FC01208300008BE290E0FC0120819C
:1001C0008BE290E02F77FC01208381E090E00E9499
:1001D000330100000F90DF91CF910895CF93DF930B
:1001E00000D000D0CDB7DEB78A837C836B830E94BA
:1001F00067008A81898311C0898191E0980F998372
:100200000E941C018B819C819C012F5F3F4F3C838E
:100210002B83FC0180810E94BE008B819C81FC01AC
:100220008081882349F7000000000F900F900F9005
:100230000F90DF91CF910895CF93DF930F92CDB7B9
:10024000DEB789838981813128F4898181580E94B0
:100250008E0004C0898181550E948E0000000F909D
:10026000DF91CF910895CF93DF9300D000D000D0DD
:10027000CDB7DEB79E838D831A82198213C01C828C
:100280001B8206C000008B819C8101969C838B831E
:100290008B819C8187309340ACF389819A81019650
:1002A0009A83898329813A818D819E812817390714
:1002B00034F30000000026960FB6F894DEBF0FBEA0
:1002C000CDBFDF91CF910895CF93DF9300D00F92F0
:1002D000CDB7DEB789837B836A8389818A3031F425
:1002E0008A819B81BC018DE00E94640180EC90E0DA
:1002F000FC018081882F90E080729927892BB1F3CF
:1003000086EC90E02981FC01208380E090E00F9052
:100310000F900F90DF91CF910895CF93DF93CDB7DA
:10032000DEB781E890E02BE0FC01208388E890E0D4
:100330002DE730E0FC01318320838FE690E022E05E
:10034000FC01208384E890E0FC01118210828091FE
:100350000E0190910F01A0911001B09111018093B5
:100360001B0190931C01A0931D01B0931E018FE50A
:1003700090E0FC0120818FE590E02068FC01208363
:100380000000DF91CF910895CF93DF93CDB7DEB713
:1003900081E890E0FC0110820000DF91CF91089588
:1003A000CF93DF93CDB7DEB781E080931A010000D1
:1003B000DF91CF9108951F920F920FB60F921124E3
:1003C0000BB60F922F933F934F935F936F937F934F
:1003D0008F939F93AF93BF93EF93FF93CF93DF934D
:1003E000CDB7DEB780911B0190911C01A0911D013A
:1003F000B0911E010197A109B10980931B0190934F
:100400001C01A0931D01B0931E0180911B019091CE
:100410001C01A0911D01B0911E01892B8A2B8B2BF1
:1004200091F40E94D00180910E0190910F01A09152
:100430001001B091110180931B0190931C01A093B6
:100440001D01B0931E010000DF91CF91FF91EF914C
:10045000BF91AF919F918F917F916F915F914F91DC
:100460003F912F910F900BBE0F900FBE0F901F90DA
:100470001895CF93DF9300D000D0CDB7DEB7698356
:100480007A838B839C8389819A81AB81BC818093A1
:100490000E0190930F01A0931001B0931101809170
:1004A0000E0190910F01A0911001B0911101809364
:1004B0001B0190931C01A0931D01B0931E0100002D
:1004C0000F900F900F900F90DF91CF910895CF93E1
:1004D000DF93CDB7DEB780911F0190912001CC0151
:1004E000A0E0B0E087309105A105B10508F0AEC0ED
:1004F00083539C4FFC010C94C20381E090E09093E5
:10050000200180931F01ABC081E08093240182E031
:1005100090E09093200180931F0180912301882F08
:1005200090E081709927892B09F492C081E0809333
:10053000240184E090E09093200180931F0188C003
:1005400080912401813039F483E090E09093200180
:1005500080931F0106C081E090E09093200180937A
:100560001F0180912301882F90E081709927892BAA
:1005700009F470C082E08093240184E090E09093BD
:10058000200180931F0166C083E08093240182E0F4
:1005900090E09093200180931F0180912301882F88
:1005A00090E081709927892B09F456C083E08093ED
:1005B000240184E090E09093200180931F014CC0BF
:1005C00080912301882F90E081709927892B39F041
:1005D00084E090E09093200180931F0106C085E0A5
:1005E00090E09093200180931F018091240182303C
:1005F00031F4809121018F5F809321012FC0809180
:100600002101882359F1809121018150809321019A
:1006100025C080912301882F90E081709927892B34
:1006200039F086E090E09093200180931F0117C07D
:1006300085E090E09093200180931F0110C081E03D
:1006400090E09093200180931F0109C0000007C033
:10065000000005C0000003C0000001C00000809140
:100660001F019091200183309105B1F084309105F4
:10067000B8F48230910561F08330910588F40097D9
:1006800089F0019709F00CC081E0809322010BC032
:1006900082E08093220107C084E08093220103C09E
:1006A000000001C000000000DF91CF910895CF93BA
:1006B000DF93CDB7DEB781E290E0FC01108282E2E9
:1006C00090E02FEFFC01208384E290E02FE0FC011A
:1006D000208385E290E0FC01108287E290E02FEF1A
:1006E000FC01208388E290E0FC0110828AE290E025
:1006F0002FEFFC0120838BE290E0FC01108210922E
:10070000200110921F0181E08093240185E08093F5
:1007100021016CE271E080E090E00E9439020E94C9
:100720008D010E94720080E290E0FC018081809542
:100730008093230183E290E0FC0180818093220179
:100740000E94670285E290E020912201FC01208353
:1007500081E00E941C0180912101893031F462E125
:1007600071E081E00E94EE0005C080912101805D72
:100770000E94BE00000080911A018823E1F31092CC
:100780001A01D1CFEE0FFF1F0024001C0BBE0790F3
:10079000F691E02D0994F894FFCF7D028402A00227
:0807A000C402E00209031F037B
:1007A80000000002000000006401000000000100D9
:0A07B800000057696E6E65722100A3
:00000001FF
